:020000041000EA
:1080000010B5184B184A9A4203D0184B154A9A4299
:1080100004D3174B174A9A4210D31EE0164B134A4B
:108020000332D21A92080132920000230D480E4901
:10803000CC58C45004339342FAD1EAE70F4B0C49B1
:108040000331C91A8908013189000023094C002035
:108050001A19106004338B42FAD1094B9847094B27
:10806000984710BD44A6001044A60010A8A6001012
:10807000ACA70010A8A6001048A60010ACA60010DF
:1080800069980010D195001010B5064C2378002B8C
:1080900007D1054B002B02D0044800E000BF0123AC
:1080A000237010BDA8A600100000000044A6001018
:1080B00008B5084B002B03D00748084900E000BF73
:1080C00007480368002B00D108BD064B002BFBD0EE
:1080D0009847F9E70000000044A60010ACA6001085
:1080E00044A600100000000008B50D4B1B7D002BBE
:1080F00007D001220A4B1A730A4B1B68002B00D0D1
:1081000098473423064AD35C002B07D001212C2347
:10811000D154054B1B68002B00D0984708BDC046C2
:1081200000100040C4A60010C8A600100123037070
:108130000373022242704273837083730022C27001
:10814000C273037103748260426102767047C04655
:10815000002805D1064A117A80230B43137205E0EB
:1081600003492822885C802303438B547047C04610
:108170000010004038B5041C0420394B9847237880
:10818000002B02D1237B002B65D03649CA682023FF
:108190001343CB60237E032213401A018B693020E6
:1081A000834313438B612378002B26D0637801210E
:1081B000002B03D0023B5D425D41A901E2789200B1
:1081C0000C252A40A3785B000A3D2B401A43151C5E
:1081D0000D432379002B01D020231D43224BA2689D
:1081E0001A601D721F49C4225200885C0123034398
:1081F0008B5400201D4B984700E00025237B002B6B
:1082000029D0637B002B05D0012B05D0022B04D194
:10821000402502E0012500E00025E37B9B000C21C6
:108220001940A27B5200022313400B431D43237CC1
:10823000002B01D020231D4362690B4B1A622822B8
:108240009D5408496132FF32885C022303438B54FA
:108250000120064B98471E200549064B984738BD1C
:108260000D8C001000B00040001000405181001043
:10827000E980001075900010002802D1024B1960AF
:1082800001E0024B19607047C4A60010C8A6001098
:1082900038B5174B1D68298F89B2CB0707D4012346
:1082A0000124181C221C9A40114216D001E0012220
:1082B00000202B8F1A4392B22A8746230C4AD35AA6
:1082C0000341DB070CD54423D35A0341DB0707D511
:1082D000800010184368984702E00133102BE0D16A
:1082E00080210904C0235B00024AD15038BDC0463A
:1082F000FCA6001000E100E0F8B5194B9B6C1E8F46
:10830000B6B2371C0025760B7603154C002E01D033
:10831000144B98472A1C0123AB401F4215D0A16C77
:10832000088F03439BB20B878E23E35A2B41DB0755
:108330000BD58C230A49CB5A2B41DB0705D51232CA
:1083400092008B185B68984702E00135102DDDD153
:1083500080214904C0235B00034AD150F8BDC046C8
:10836000FCA6001051BC010000E100E000230370F6
:10837000012242708370C3707047C04670B51723E6
:10838000012800D8A7E00E2800D1A4E0072809D8CA
:10839000524D6A6C103B03409B0007249C40A24353
:1083A0006A6416E00F2809D84C4DAA6C07230340D5
:1083B0009B0007249C40A243AA640AE0172808D81F
:1083C000464DEA6C072303409B0007249C40A243D0
:1083D000EA64031C1D3B022B2AD84B78012B08D1E1
:1083E0003F4D2B7D1F22141A1E3AA24093432B753A
:1083F00009E03B4D2E7D1F24241A0122131CA340AB
:108400003343DBB22B75CA780023002A63D034498A
:108410000B881F22101A80001E3A824013439BB221
:108420000B80304A117802230B431370002352E073
:108430000A78002A34D10F2805D8012383409BB243
:10844000294A938206E00F23034001229A4093B207
:10845000264A93824B78012B0DD0002B02D0022BA1
:1084600011D037E01D490B6D01228240101C1843CA
:10847000086500232FE019490B6D012282409343C8
:108480000B65002327E0154B596D01228240101C1B
:108490000A1C02435A651A6D82431A6500231AE0CA
:1084A0000023012A17D10F2808D80F490B8A8240D0
:1084B000101C184383B20B8200230CE00B490B8A7B
:1084C0000F2210400E3A8240101C184383B20B82D8
:1084D000002300E01723181C70BDC04600B0004008
:1084E00000F0004000E000400000014000100140AA
:1084F00010B50F2808D80A4A918801238340181C18
:10850000484080B2908009E006498C880F220240E2
:1085100001239340181C604080B2888010BDC04683
:10852000000001400010014070B50C0AFF23194003
:10853000072835D8514A556CF83B03409B00072665
:108540009E40B5435564556C0E1C9E40331C2B4316
:108550005364012900D090E0032810D8111CD022C8
:1085600052008D5803231840C0003C3383409D4384
:108570008D508B588440201C184388507DE03F4923
:10858000D22252008D5803231840C0003C33834050
:108590009D438D508B588440201C184388506CE0BC
:1085A0000F2834D8354A956C072303409B000726D3
:1085B0009E40B5439564956C0E1C9E40331C2B4326
:1085C0009364012959D10B2810D8111CD4225200D0
:1085D0008D5803231840C0003C3383409D438D5089
:1085E0008B588440201C1843885046E02349D622EB
:1085F00052008D5803231840C0003C3383409D43F4
:108600008D508B588440201C1843885035E0172823
:1086100033D81A4AD56C072303409B0007269E4097
:10862000B543D564D56C0E1C9E40331C2B43D364DC
:10863000012922D1132810D8111CD82252008D589C
:1086400003231840C0003C3383409D438D508B581A
:108650008440201C184388500FE0084ADA235B004E
:10866000D15803252840C0003C358540A943D1504E
:10867000D1588440201C0843D05070BD00B0004049
:10868000F0B50F2383429B415B42012A1DD0002A93
:1086900004D0022A30D0032A45D05AE0374FDD00FB
:1086A000EA18D200D2599446968D0F220240012436
:1086B0009440A2B2341C14436646B485ED18ED0014
:1086C000EC59A58E2A43A28643E02C4FDD00EA1820
:1086D000D200D2599446968D0F2202400124944034
:1086E000A2B2341C14436646B485ED18ED00EC5973
:1086F000258E2A4322862CE0204FDD00EA18D20086
:10870000D2599446168D0F22024001249440A2B201
:10871000341C144366463485ED18ED00EC59258E63
:108720002A43228615E0154FDD00EA18D200D259FF
:108730009446168D0F22024001249440A2B2341CAC
:10874000144366463485ED18ED00EC59A58E2A4396
:10875000A2860F221040094CDD00EA1852001218C0
:108760009200A2185160EA18D200A21840320121EA
:108770008140081C938818439080F0BDFCA600102F
:1087800030B50F2383429B415B420F2210400E3ACB
:10879000824090B2074CDD00EA18D200A2184032A5
:1087A000D1880143D180EB18DB001B591A8C104390
:1087B000188430BDFCA6001010B5134B191C4031B5
:1087C0001A1C0020506004328A42FBD10E4A00205D
:1087D00046241053023C10530022DA6404339942B9
:1087E000FBD1094B00228E215A5202395A52074AB4
:1087F0001A60074A9A6427200649074CA047282098
:108800000649A04710BDC046FCA60010000001406C
:10881000001001409182001075900010F982001044
:1088200001280DD0002802D002281CD02EE0184AC2
:1088300090690C2303439361164A174B1A601AE0A0
:10884000134B9869082202439A619A690420824373
:108850009A61124A53688020000303435360104A10
:108860000D4B1A6007E00A4A93690C208343936119
:10887000084A094B1A60064B9A69032082439A61A1
:108880009A69014011439961002000E01720704768
:1088900000B0004080BA8C018CA7001000F00040AE
:1088A00080841E00014B18687047C0468CA70010DA
:1088B00000B5352800D9A2E18000D24B1B589F4655
:1088C000D14AD16802230B43D360002098E1CE4AFD
:1088D000D16804230B43D360002091E1CA4AD168D8
:1088E00008230B43D36000208AE1C74AD1681023D4
:1088F0000B43D360002083E1C34AD16820230B439C
:10890000D36000207CE1C04AD16880230B43D36050
:10891000002075E1BC4AD368802149000B43D36035
:1089200000206DE1B84AD368802109010B43D36070
:10893000002065E1B44AD368802149010B43D3602C
:1089400000205DE1B04AD368802189010B43D360E8
:10895000002055E1AC4AD3688021C9010B43D360A4
:1089600000204DE1A84AD368802109020B43D3605F
:10897000002045E1A44AD368802149020B43D3601B
:1089800000203DE1A04AD368802189020B43D360D7
:10899000002035E19C4AD3688021C9020B43D36093
:1089A00000202DE1984AD368802109030B43D3604E
:1089B000002025E1944AD368802149030B43D3600A
:1089C00000201DE1904AD368802189030B43D360C6
:1089D000002015E18C4AD3688021C9030B43D36082
:1089E00000200DE1884AD368802109040B43D3603D
:1089F000002005E1844AD368802149040B43D360F9
:108A00000020FDE0804AD368802189040B43D360B5
:108A10000020F5E07C4AD3688021C9040B43D36071
:108A20000020EDE0784AD368802109050B43D3602C
:108A30000020E5E0744AD368802149050B43D360E8
:108A40000020DDE0704AD368802189050B43D360A4
:108A50000020D5E06C4AD3688021C9050B43D36060
:108A60000020CDE0684A116901230B431361002007
:108A7000C6E0654A116902230B4313610020BFE081
:108A8000614A116904230B4313610020B8E05E4A78
:108A9000116908230B4313610020B1E05A4A1169A0
:108AA00010230B4313610020AAE0574A11692023C9
:108AB0000B4313610020A3E0534A116940230B4389
:108AC000136100209CE0504A116980230B4313611D
:108AD000002095E04C4A1369802149000B43136143
:108AE00000208DE0484A1369802189000B431361FF
:108AF000002085E0444A13698021C9000B431361BB
:108B000000207DE0404A1369802109010B43136175
:108B1000002075E03C4A1369802149010B43136131
:108B200000206DE0384A1369802189010B431361ED
:108B3000002065E0344A13698021C9010B431361A9
:108B400000205DE0304A1369802109020B43136164
:108B5000002055E02C4A1369802149020B43136120
:108B600000204DE0284A1369802189020B431361DC
:108B7000002045E0244A13698021C9020B43136198
:108B800000203DE0204A1369802109030B43136153
:108B9000002035E01C4A1369802149030B4313610F
:108BA00000202DE0184A1369802189030B431361CB
:108BB000002025E0144A13698021C9030B43136187
:108BC00000201DE0104A1369802109040B43136142
:108BD000002015E00C4A117D01230B431375002082
:108BE0000EE0094A117D02230B431375002007E0B4
:108BF000054A117D04230B431375002000E0172064
:108C000000BDC04608A3001000B0004000B54328D6
:108C100000D923E28000E04B1B589F46DF4B596888
:108C200002229143596059680A435A60002016E2B3
:108C3000DA4B596804229143596059680A435A60D3
:108C400000200CE2D54B59680822914359605968BD
:108C50000A435A60002002E2D04B59681022914327
:108C6000596059680A435A600020F8E1CB4B5968B3
:108C700020229143596059680A435A600020EEE16E
:108C8000C64B596840229143596059680A435A605B
:108C90000020E4E1C14B5968802291435960596832
:108CA0000A435A600020DAE1BC4B5968BC4A0A40CA
:108CB0005A605A68802149000A435A600020CEE178
:108CC000B64B5968B74A0A405A605A6880218900F1
:108CD0000A435A600020C2E1B04B5968B24A0A40C8
:108CE0005A605A688021C9000A435A600020B6E1E0
:108CF000AA4B5968AD4A0A405A605A688021090156
:108D00000A435A600020AAE1A44B5968A84A0A40C5
:108D10005A605A68802149010A435A6000209EE146
:108D20009E4B5968A34A0A405A605A6880218901BB
:108D30000A435A60002092E1984B59689E4A0A40C3
:108D40005A605A688021C9010A435A60002086E1AE
:108D5000924B5968994A0A405A605A688021090220
:108D60000A435A6000207AE18C4B5968944A0A40C1
:108D70005A605A68802149020A435A6000206EE115
:108D8000864B59688F4A0A405A605A688021890286
:108D90000A435A60002062E1804B59688A4A0A40BF
:108DA0005A605A688021C9020A435A60002056E17D
:108DB0007A4B5968854A0A405A605A6880210903EB
:108DC0000A435A6000204AE1744B5968804A0A40BD
:108DD0005A605A68802149030A435A6000203EE1E4
:108DE0006E4B59687B4A0A405A605A688021890351
:108DF0000A435A60002032E1684B5968764A0A40BB
:108E00005A605A688021C9030A435A60002026E14B
:108E1000624B5968714A0A405A605A6880210904B5
:108E20000A435A6000201AE15C4B59686C4A0A40B8
:108E30005A605A68802149040A435A6000200EE1B2
:108E4000564B5968674A0A405A605A68802189041B
:108E50000A435A60002002E1504B5968624A0A40B6
:108E60005A605A688021C9040A435A600020F6E01B
:108E70004A4B59685D4A0A405A605A688021090580
:108E80000A435A600020EAE0444B5968584A0A40B5
:108E90005A605A68802149050A435A600020DEE082
:108EA0003E4B5968534A0A405A605A6880218905E6
:108EB0000A435A600020D2E0384B59684E4A0A40B3
:108EC0005A605A688021C9050A435A600020C6E0EA
:108ED000324A53685B005B0853605368802109067F
:108EE0000B4353600020BAE02C4B1A8901218A43BE
:108EF0001A81198901220A431A810020AFE0274B09
:108F00001A8902218A431A81198902220A431A8185
:108F10000020A4E0214B1A8904218A431A8119896F
:108F200004220A431A81002099E01C4B1A89082167
:108F30008A431A81198908220A431A8100208EE087
:108F4000164B1A8910218A431A81198910220A4363
:108F50001A81002083E0114B1A8920218A431A814B
:108F6000198920220A431A81002078E00B4B1A89C4
:108F700040218A431A81198940220A431A8100201C
:108F80006DE0064B1A8980218A431A811989802253
:108F90000A431A81002062E0E0A3001000B0004004
:108FA000FFFEFFFFFFFDFFFFFFFBFFFFFFF7FFFFE0
:108FB000FFEFFFFFFFDFFFFFFFBFFFFFFF7FFFFFB1
:108FC000FFFFFEFFFFFFFDFFFFFFFBFFFFFFF7FFC0
:108FD000FFFFEFFFFFFFDFFFFFFFBFFFFFFF7FFF91
:108FE000FFFFFFFEFFFFFFFDFFFFFFFBFFFFFFF7A0
:108FF000FFFFFFEFFFFFFFDFFFFFFFBF184B1989E8
:10900000184A0A401A811989802252000A431A819B
:10901000002024E0124B1989134A0A401A81198949
:10902000802292000A431A81002018E00C4B198913
:109030000E4A0A401A8119898022D2000A431A81F5
:1090400000200CE0064B1989094A0A401A81198947
:10905000802212010A431A81002000E0172000BD7F
:1090600000B00040FFFEFFFFFFFDFFFFFFFBFFFF23
:10907000FFF7FFFF8023DB049C4660448000016013
:109080007047C04638B5204B1C6823681D7DEDB283
:109090006A0613D51E212222A1541A7E23318A4347
:1090A0001A762123E35C1B0706D52023E35C1B070C
:1090B00002D5201C2369984723681B7CEB0722D527
:1090C00023681B7CDBB262691370636901336361DF
:1090D000A38B013B9BB2A383A38B9BB2002B12D12A
:1090E0002133E35C5B070ED52023E35C5B070AD5E5
:1090F00000222223E2542268137E01218B4313763F
:10910000E368201C984738BD90A7001038B5214B64
:109110001C6823681D79EDB2EA0717D5A26911789A
:10912000C9B20132A2611970E38B013B9BB2E383A8
:10913000E38B9BB2002B09D12268137A01218B4368
:1091400013722268117A10230B431372EB0612D5A7
:109150002123E35CDB070ED52023E35CDB070AD584
:1091600000222223E2542268137A10218B431372C7
:10917000201C63689847AB060AD52123E35C9B0754
:1091800006D52023E35C9B0702D5A368201C9847E3
:1091900038BDC04690A7001038B5204B5C682368E6
:1091A0001D7DEDB26A0613D51E212222A1541A7E1E
:1091B00023318A431A762123E35C1B0706D520233B
:1091C000E35C1B0702D5201C2369984723681B7C9E
:1091D000EB0722D523681B7CDBB2626913706369DD
:1091E00001336361A38B013B9BB2A383A38B9BB22F
:1091F000002B12D12133E35C5B070ED52023E35C07
:109200005B070AD500222223E2542268137E012143
:109210008B431376E368201C984738BD90A7001055
:1092200038B5214B5C6823681D79EDB2EA0717D584
:10923000A2691178C9B20132A2611970E38B013BB6
:109240009BB2E383E38B9BB2002B09D12268137A94
:1092500001218B4313722268117A10230B4313727E
:10926000EB0612D52123E35CDB070ED52023E35C5C
:10927000DB070AD500222223E2542268137A102148
:109280008B431372201C63689847AB060AD52123D1
:10929000E35C9B0706D52023E35C9B0702D5A3680C
:1092A000201C984738BDC04690A70010E1235B0200
:1092B00003600023037143718371C37102338360C0
:1092C0000322C26001320261013242618361C361E3
:1092D000036243627047C046F8B54F464646C0B485
:1092E000051C171C0160554B994218D10920544C9C
:1092F000A0470A20A0470920524CA0470A20A047B7
:10930000514B1D6010205149514CA047112051492B
:10931000A047514B01221A6001321A601AE04F4BEC
:10932000994217D10B20464CA0470C20A0470B2098
:10933000444CA0470C20A047434B5D601220484995
:10934000434CA04713204749A047434B04221A60CF
:1093500004321A60FB7904229046002B52D102336A
:1093600098464FE03078318AC8470134E4B2043679
:109370004445F7D32B681A7DD20704D501211A7C06
:109380001A7D0A42FBD1002120229954FB79591EF3
:109390008B4159017B793A7913430B43BA79022AFD
:1093A0000DD0D1B2022902D8012A05D00FE0032A3C
:1093B00008D0042A09D00AE00222134307E006225B
:1093C000134304E00A22134301E00E221343202238
:1093D00029688B543E68244B9847041C311C234B4E
:1093E000984782B20004000C7043201A3109884269
:1093F00006D900230133DBB2401A8842FAD807E0CD
:10940000002305E03E1C08360024194B9946A9E7C5
:10941000002128202C68215401331B075B0FD20048
:1094200013439BB22A6893842B6819762B681972B0
:1094300000200CBC90469946F8BDC0460040004054
:109440000D8C0010B188001090A7001085900010BE
:10945000759000100D91001000E100E000500040F8
:109460009991001021920010A588001045970010D6
:10947000298500100268012013790342FCD0117085
:109480000020704702680120137D0342FCD0137C4A
:109490000B7000207047C046F0B5474680B40C1CE6
:1094A0009046002810D1002A0ADD8F18094E0A4D77
:1094B0003068211C2B6898470134BC42F8D101E088
:1094C00000239846404601E00120404204BC9046FB
:1094D000F0BDC046A0A7001098A70010F0B5474601
:1094E00080B40138022815D8002A10D0151C0E1C93
:1094F00000240C4B98460C4F43461868315D3B687E
:109500009847002809DB0134A542F5D100E000248A
:10951000201C04E00120404201E00120404204BC44
:109520009046F0BDA0A700109CA70010031C064A9F
:109530001268002A02D10549034A1160024A1068E4
:10954000C31813607047C046CCA60010B0AF00101F
:10955000012040427047C04680239B014B600020A1
:109560007047C04601207047002070470122014B20
:109570001A707047A4A7001008B50248024B98471C
:1095800008BDC046F0A400108999001008B5024833
:10959000024B984708BDC04604A5001089990010E9
:1095A00070B5061C0D1C034C301C291CA04700285C
:1095B000FAD170BD8594001070B5061C0D1C034CCB
:1095C000301C291CA0470028FAD170BD75940010EA
:1095D00030B58BB0002000213B4B984768463B4B91
:1095E0009847E1235B020093022302930322039234
:1095F000013204920132059206930793089309936E
:109600003348344B1860344A344B1A60344A354B73
:109610001A6035496A46354B9847354D2B6898682E
:109620000021344CA0472B6858680021A0473248DD
:10963000324B98476846324B984700236A4613706E
:109640005370172069462F4DA84701246B461C70A4
:1096500016206946A8472C4B984717202B49032210
:109660002B4B984717202B4B984768462A4B984717
:109670002A4B02932A4B059368462A4B98470020B1
:1096800029492A4DA84701202949A8478022D2010B
:10969000284B1A60284B1C701C1C284D2378002B6B
:1096A000FCD01620A847264A642106E0C046013BAC
:1096B000002BFBD1013A002A01D00B1CF6E7002356
:1096C0001D4A1370EAE7C04621880010AD920010D1
:1096D000D0A60010A0A70010B99500109CA70010FC
:1096E000A195001098A7001000400040D9920010EA
:1096F000A4A600109D99001018A5001089990010CB
:109700006D8300107D830010B98700106D950010E7
:1097100081860010818700102D81001080A4BF0772
:1097200000497F0F758100108D950010798200101F
:109730007995001000E100E0A4A70010F18400106A
:1097400088130000002243088B4274D303098B4224
:109750005FD3030A8B4244D3030B8B4228D3030C01
:109760008B420DD3FF22090212BA030C8B4202D3A3
:109770001212090265D0030B8B4219D300E0090ACB
:10978000C30B8B4201D3CB03C01A5241830B8B42D4
:1097900001D38B03C01A5241430B8B4201D34B03BD
:1097A000C01A5241030B8B4201D30B03C01A524122
:1097B000C30A8B4201D3CB02C01A5241830A8B42A7
:1097C00001D38B02C01A5241430A8B4201D34B0290
:1097D000C01A5241030A8B4201D30B02C01A5241F4
:1097E000CDD2C3098B4201D3CB01C01A52418309A8
:1097F0008B4201D38B01C01A524143098B4201D3E2
:109800004B01C01A524103098B4201D30B01C01A0C
:109810005241C3088B4201D3CB00C01A5241830886
:109820008B4201D38B00C01A524143088B4201D3B3
:109830004B00C01A5241411A00D201465241104613
:109840007047FFE701B5002000F00CF802BDC046EC
:109850000029F7D003B5FFF775FF0EBC4243891A04
:109860001847C0467047C0460E4B70B500251E1CF9
:109870000D4CE41AA410A54204D0AB00F35898474D
:109880000135F8E700F0CEFE084B00251E1C084C01
:10989000E41AA410A54204D0AB00F3589847013550
:1098A000F8E770BD30A6001030A6001030A60010FA
:1098B00034A60010031C8218934202D019700133A1
:1098C000FAE7704770B5051C0E1C002804D08369A8
:1098D000002B01D100F0B6FAAC68A3891B0702D5B2
:1098E0002369002B19D1281C211C00F03FF9002806
:1098F00013D00120404245E03178002B1BDAA269E9
:10990000934211DA221C281C00F0D8F801304242A0
:109910004241D0B20028ECD10136A3683278013B35
:10992000A360002AE8D10CE0236819702368197835
:109930000A2903D1E6E723681970236801332360FD
:10994000EAE7002B17DAA269934208DB0A232268B0
:109950001370236819780A2911D1281C01E0281CEA
:109960000A21221C00F0AAF8013042424241D0B242
:10997000002806D0BDE70A2322681370236801334C
:1099800023600A2070BD000008B5034B011C186855
:10999000FFF798FF08BDC046A4A6001008B54A42CC
:1099A0004A4180235200DB0000F002F808BD0000AD
:1099B000F7B51E1C3C4B041C1D680F1C0192002DAA
:1099C00005D0AB69002B02D1281C00F03BFA374BC5
:1099D0009C4201D16C6808E0354B9C4201D1AC68D7
:1099E00003E0344B9C4200D1EC68019B022B58D819
:1099F000002E56DB281C211C00F0B6F90023636002
:109A0000A361A3891B0603D5281C216900F00EFB66
:109A10008322A3899343A381019B022B13D0002FA0
:109A200025D1002E01D18026F600301C00F0F4FA7A
:109A3000071E18D18020C00000F0EEFA071E10D1DA
:109A40000120404200E000200222A3891343A381A9
:109A50000023A360231C4733236023610123636138
:109A600021E08026F6008022A3891343A381019B75
:109A7000012B05D1A389019A1A437342A281A361E4
:109A80000D4B0020AB62A289276027616661130736
:109A900009D503231A40534253415B421E40A6603E
:109AA00001E001204042FEBDA4A60010C4A50010A4
:109AB000E4A5001004A60010C19D001070B5051C9F
:109AC0000E1C141C002804D08369002B01D100F067
:109AD000B9F9234B9C4201D16C6808E0214B9C42B0
:109AE00001D1AC6803E0204B9C4200D1EC68A36933
:109AF000A360A3891B070AD52369002B07D023681D
:109B00002269F6B2981A636998420FDB08E0281CB4
:109B1000211C00F02BF80028F1D0012040421DE06C
:109B2000281C211C00F020F90028F6D1A368013080
:109B3000013BA36023685A1C22601E70636998422F
:109B400005D0A389301CDB0708D50A2E06D1281CB6
:109B5000211C00F009F90028DFD1301C70BDC0467F
:109B6000C4A50010E4A5001004A60010354B70B584
:109B70001D68061C0C1C002D05D0AB69002B02D102
:109B8000281C00F05FF9304B9C4201D16C6808E062
:109B90002E4B9C4201D1AC6803E02D4B9C4200D17E
:109BA000EC68A3899AB2110723D4D10607D40922FD
:109BB0000120326037321343A381404240E0530713
:109BC00013D5616B002908D0231C4433994202D07D
:109BD000301C00F02BFA002363632422A3899343F3
:109BE000A38100236360236923600822A3891343B0
:109BF000A3812369002B0BD1A023A2899B001340D2
:109C000080229200934203D0301C211C00F0ACF95A
:109C10000123A289134005D00023A36063695B423E
:109C2000A36103E0910700D46369A3600020236966
:109C3000834205D1130603D540231A43A28101387C
:109C400070BDC046A4A60010C4A50010E4A5001075
:109C500004A60010F7B58A89051C0C1C13075ED4F6
:109C60004B68002B02DC0B6C002B1ADDE76A002F1F
:109C700017D000232E682B6080235B011A4001D08F
:109C8000626D15E0281C216A0123B847021C431CA1
:109C90000ED12B68002B0BD01D2B01D0162B02D11F
:109CA0002E6000205EE04021A3890B43A38159E090
:109CB000A3895B0706D56368D21A636B002B01D0BA
:109CC000236CD21A0023281C216AE76AB847A389AB
:109CD000421C06D12A68002A03D01D2A01D0162A68
:109CE00019D10022626022692260DB0405D5431C81
:109CF00002D12B68002B00D16065616B2E600029BA
:109D0000CFD0231C4433994202D0281C00F08EF996
:109D10000020606326E040221343A38122E00F6904
:109D2000002FBED00B680F60DB1B0193002392074E
:109D300000D14B69A360019B002BB2DD281C216A76
:109D40003A1C019BA66AB047002806DC402201208D
:109D5000A38940421343A38104E0019B3F181B1ACF
:109D60000193E8E7FEBD000038B50B69051C0C1C2B
:109D7000002B01D100201CE0002804D08369002BB7
:109D800001D100F05FF80B4B9C4201D16C6808E0F8
:109D9000094B9C4201D1AC6803E0084B9C4200D1C6
:109DA000EC680C22A35E002BE4D0281C211CFFF7DA
:109DB00051FF38BDC4A50010E4A5001004A6001092
:109DC00008B5024900F0AEF808BDC046699D001014
:109DD000002310B5041C03604360836081814366E7
:109DE000C281036143618361191C08225C30FFF763
:109DF00061FD054B24626362044BA362044BE36282
:109E0000044B236310BDC0468DA10010B5A1001006
:109E1000EDA1001019A2001070B568254B1E5D431E
:109E20000E1C291C743100F047F9041E08D00021D3
:109E30002A1C016046600C30A0606832FFF73AFDD2
:109E4000201C70BD836913B5002B28D18364C364C3
:109E50000365134B134A1B6882620193984201D138
:109E600001238361041C00F01FF86060201C00F0D7
:109E70001BF8A060201C00F017F80421E06000220D
:109E80006068FFF7A5FFA06809210122FFF7A0FF86
:109E9000E06812210222FFF79BFF0123A36113BD9B
:109EA000C0A50010C19D0010F8B51D4B061C1D6813
:109EB000AB69002B02D1281CFFF7C4FF4835AC6802
:109EC0006B68013B05D40C22A75E002F10D06834CC
:109ED000F7E72B68002B06D1301C0421FFF79CFF0D
:109EE0002860002801D02D68E9E70C23336016E0D4
:109EF0000123201C5B42E3810233A3816766276054
:109F0000A760676027616761A7615C30391C082220
:109F1000FFF7D0FC201C6763A763A764E764F8BD64
:109F2000C0A50010F7B5041C071C00260191483499
:109F3000002C16D06368A5680093009B013B00933A
:109F40000DD4AB89012B08D90E22AB5E013304D0AE
:109F5000381C291C019B984706436835EDE72468A7
:109F6000E6E7301CFEBD0000F0B58B8991B09B0781
:109F700006D50B1C47330B600B6101234B6145E099
:109F80000C1C0E23C95E061C002904DA8023A58957
:109F90001D4010D10CE001AA00F06AF90028F5DBA1
:109FA000F023029D1B021D40194BED186B425D41D1
:109FB0008027FF0001E000254027301C391C00F0FD
:109FC0007BF800280CD1A3899A051FD402221343E1
:109FD000A381231C4733236023610123636115E0C0
:109FE00080220C4BB362A38920601343A3812061BC
:109FF0006761002D0AD00E23E15E301C00F04AF9A3
:10A00000002803D00122A3891343A38111B0F0BD1E
:10A0100000E0FFFFC19D001008B5034B011C18684C
:10A0200000F04AF808BDC046A4A6001030B50029CB
:10A030003ED004390B68002B00DAC9181D4A13689A
:10A04000141C002B02D14B60116031E099420DD2FB
:10A0500008680A189A4203D11368C3180B60536842
:10A060004B60216024E08A4203D8131C5A68002AFE
:10A07000F9D11D685C198C420BD109686918581810
:10A080001960904214D110685268091819605A601A
:10A090000EE08C4202D90C23036009E008680C181A
:10A0A000944203D114685268001908604A605960EC
:10A0B00030BDC046F8A60010032370B5CC1C9C43ED
:10A0C0000834051C0C2C01D20C2405E0002C03DA0A
:10A0D0000C2300202B6042E08C42F9D3204A136805
:10A0E000101C191C002913D00A68121B0DD40B2A4E
:10A0F00002D90A608B181FE08B4202D15A680260B5
:10A100001BE04A685A600B1C17E00B1C4968E9E722
:10A11000144E3368002B03D1281C00F025F8306062
:10A12000281C211C00F020F8031C421CD0D0032264
:10A13000C61C964386420AD11C60181C07210B30AE
:10A140001A1D8843821A0AD05142995007E0311AE9
:10A15000281C00F009F8431CBAD0331CECE770BD92
:10A16000F8A60010F4A6001038B50023064C051C14
:10A17000081C2360FFF7DAF9431C03D12368002B86
:10A1800000D02B6038BDC046A8A7001038B50C1C05
:10A190000E25495F00F0A4F8002803DB636D1B184F
:10A1A000636503E0A289024B1340A38138BDC0461A
:10A1B000FFEFFFFFF8B51E1C8B89051C0C1C171C3C
:10A1C000DB0505D50E23C95E0022022300F074F8DA
:10A1D000A289054B281C1340A3813A1C0E23E15E83
:10A1E000331C00F01FF8F8BDFFEFFFFF38B50C1C63
:10A1F0000E25495F00F060F8A389421C03D1054A8F
:10A200001340A38104E0802252011343A3816065BF
:10A2100038BDC046FFEFFFFF08B50E23C95E00F052
:10A2200015F808BD38B5051C0020074C2060081C37
:10A23000111C1A1CFFF752F9431C03D12368002B91
:10A2400000D02B6038BDC046A8A7001038B5002349
:10A25000064C051C081C2360FFF77AF9431C03D148
:10A260002368002B00D02B6038BDC046A8A7001083
:10A2700038B50023064C051C081C111C2360FFF791
:10A280006BF9431C03D12368002B00D02B6038BD31
:10A29000A8A7001038B50023064C051C081C236035
:10A2A000FFF760F9431C03D12368002B00D02B601B
:10A2B00038BDC046A8A7001038B5051C0020074CC3
:10A2C0002060081C111C1A1CFFF74EF9431C03D117
:10A2D0002368002B00D02B6038BDC046A8A7001013
:10A2E00038B5051C0020074C2060081C111C1A1CE6
:10A2F000FFF7D2F8431C03D12368002B00D02B605A
:10A3000038BDC046A8A70010C0880010CE88001035
:10A31000DC880010EA880010F88800100689001018
:10A320001489001024890010348900104489001019
:10A330005489001064890010748900108489001009
:10A3400094890010A4890010B4890010C4890010F9
:10A35000D4890010E4890010F4890010048A0010E8
:10A36000148A0010248A0010348A0010448A0010D5
:10A37000548A0010648A0010728A0010808A0010CB
:10A380008E8A00109C8A0010AA8A0010B88A0010D9
:10A39000C68A0010D48A0010E48A0010F48A0010E3
:10A3A000048B0010148B0010248B0010348B0010D1
:10A3B000448B0010548B0010648B0010748B0010C1
:10A3C000848B0010948B0010A48B0010B48B0010B1
:10A3D000C48B0010D48B0010E28B0010F08B0010A7
:10A3E000308C0010588C0010808C0010A88C00104D
:10A3F000E88E0010D88C0010F08C0010688D0010D2
:10A40000808D0010088D0010208D0010388D0010F8
:10A41000508D0010988D00105C9000105C90001022
:10A420005C9000105C9000105C9000105C9000103C
:10A430005C9000105C900010408E0010588E001050
:10A44000708E0010FE8E0010C88D00105C90001001
:10A450005C9000105C9000105C9000105C9000100C
:10A460005C900010888E0010A08E0010B88E001036
:10A47000D08E00105C900010149000102C900010F2
:10A480005C9000105C9000102A8F0010408F00102C
:10A49000568F00106C8F00105C9000105C900010C4
:10A4A0005C9000105C9000105C9000105C900010BC
:10A4B0005C9000105C9000101C8C0010448C00100C
:10A4C0006C8C0010948C0010C08C0010B08D0010AB
:10A4D000E08D0010F88D0010108E0010288E0010F6
:10A4E000148F0010828F0010FC8F00104490001019
:10A4F00054696D65723220747269676765720D0AFE
:10A500000000000054696D657231207472696767DC
:10A5100065720D0A000000002D2D204765747469D6
:10A520006E672053746172746564204578616D7044
:10A530006C65202D2D0D0A2D2D2053414D423131BA
:10A540005F58504C41494E45445F50524F202D2D8D
:10A550000D0A2D2D20436F6D70696C65643A2041A2
:10A56000707220203720323031362031343A313287
:10A570003A3538202D2D0D0A2D2D2050726573731C
:10A58000696E6720616E642072656C656173652019
:10A59000627574746F6E205357302073686F756CDA
:10A5A00064206D616B65204C454430206F6E2061E6
:10A5B0006E64206F6666202D2D0D000043000000A4
:10A5C00044A6001000000000000000000000000091
:10A5D000000000000000000000000000000000007B
:10A5E000000000000000000000000000000000006B
:10A5F000000000000000000000000000000000005B
:10A60000000000000000000000000000000000004A
:10A61000000000000000000000000000000000003A
:10A6200000000000F8B5C046F8BC08BC9E46704764
:10A63000B1800010F8B5C046F8BC08BC9E46704713
:04A6400089800010FD
:10A6440000000000C4A50010E4A5001004A600103A
:10A6540000000000000000000000000000000000F6
:10A66400BCA5001000000000000000000000000075
:10A6740000000000000000000000000000000000D6
:10A6840000000000000000000000000000000000C6
:10A6940000000000000000000000000000000000B6
:04A6A40044A60010B8
:040000051000800166
:00000001FF
